:100000000C94FE000C9410010C9410010C9410013F
:100010000C9410010C9410010C9410010C9410011C
:100020000C9410010C9410010C9410010C9410010C
:100030000C9410010C9410010C9410010C941001FC
:100040000C9410010C9410010C9410010C941001EC
:100050000C9410010C9410010C9410010C941001DC
:100060000C9410010C9410010C9410010C941001CC
:100070000C9410010C9410010C9410010C941001BC
:100080000C9410010C9410010C9410010C941001AC
:100090000C9410010C9410010C9410010C9410019C
:1000A0000C9410010C9410010C9410010C9410018C
:1000B0000C9410010C9410010C9410010C9410017C
:1000C0000C9410010C9410010C9410010C9410016C
:1000D0000C9410010C9410010C9410010C9410015C
:1000E0000C9410010C9410010C9410010C9410014C
:1000F0000C9410010C9410010C9410010C9410013C
:100100000C9410010C9410010C9410010C9410012B
:100110000C9410010C9410010C9410010C9410011B
:100120000C9410010C9410010C9410010C9410010B
:100130000C9410010C9410010C9410010C941001FB
:100140000C9410010C9410010C9410010C941001EB
:100150000C9410010C9410010C9410010C941001DB
:100160000C9410010C9410010C9410010C941001CB
:100170000C9410010C9410010C9410010C941001BB
:100180000C9410010C9410010C9410010C941001AB
:100190000C9410010C9410010C9410010C9410019B
:1001A0000C9410010C9410010C9410010C9410018B
:1001B0000C9410010C9410010C9410010C9410017B
:1001C0000C9410010C9410010C9410010C9410016B
:1001D0000C9410010C9410010C9410010C9410015B
:1001E0000C9410010C9410010C9410010C9410014B
:1001F0000C9410010C9410010C94100111241FBEDA
:10020000CFEFCDBFD7E2DEBF20E2A0E0B0E201C079
:100210001D92A730B207E1F70E94B2010C94BE0113
:100220000C940000AF92CF92EF920F93A12CC12CAF
:10023000E12C00E020E040E456E060EC78E080E073
:1002400090E20E9479010F91EF90CF90AF900895C6
:10025000A0E4B6E090E111969C931197E0E8F6E0F7
:1002600086E0818315969C93858308951F93CF9391
:10027000DF93C0E4D6E010E11E83682F80E090E2B7
:100280000E94A5011D83DF91CF911F9108950F93C7
:100290001F93CF93DF9300D01F92CDB7DEB783E0DB
:1002A00089831A821B8280E18093460600E010E079
:1002B0000DC0E1E0F0E0EC0FFD1FE00FF11F6081E9
:1002C00080E090E20E94A5010F5F1F4F03301105EF
:1002D00080F36FEF80E090E20E94A50190E190939F
:1002E00045062396CDBFDEBFDF91CF911F910F91C1
:1002F0000895AF92CF92EF920F93FC0160837183C8
:10030000428353831482CC2011F090E801C090E026
:100310009A299064222311F080E201C080E0A82E87
:10032000A92A0A290061DB010C93A081B1811196F1
:10033000EC92158216820280F381E02D80EA81839F
:100340000F91EF90CF90AF900895DC01ED91FC916B
:1003500011976383ED91FC91119792819923D4F7C2
:10036000838108950E9428010E9412010E94470182
:1003700099270E94360180E090E00895F894FFCF1D
:00000001FF
